{
  "contractName": "CharityContract",
  "abi": [
    {
      "inputs": [],
      "stateMutability": "nonpayable",
      "type": "constructor"
    },
    {
      "anonymous": false,
      "inputs": [
        {
          "indexed": true,
          "internalType": "address",
          "name": "recipient",
          "type": "address"
        },
        {
          "indexed": false,
          "internalType": "uint256",
          "name": "amount",
          "type": "uint256"
        }
      ],
      "name": "DonationDistributed",
      "type": "event"
    },
    {
      "anonymous": false,
      "inputs": [
        {
          "indexed": true,
          "internalType": "address",
          "name": "donor",
          "type": "address"
        },
        {
          "indexed": false,
          "internalType": "uint256",
          "name": "amount",
          "type": "uint256"
        }
      ],
      "name": "DonationReceived",
      "type": "event"
    },
    {
      "anonymous": false,
      "inputs": [
        {
          "indexed": true,
          "internalType": "address",
          "name": "walletAddress",
          "type": "address"
        },
        {
          "indexed": false,
          "internalType": "string",
          "name": "name",
          "type": "string"
        },
        {
          "indexed": false,
          "internalType": "string",
          "name": "lastName",
          "type": "string"
        }
      ],
      "name": "DonorAdded",
      "type": "event"
    },
    {
      "inputs": [
        {
          "internalType": "uint256",
          "name": "",
          "type": "uint256"
        }
      ],
      "name": "recipients",
      "outputs": [
        {
          "internalType": "address",
          "name": "walletAddress",
          "type": "address"
        },
        {
          "internalType": "string",
          "name": "description",
          "type": "string"
        },
        {
          "internalType": "string",
          "name": "purpose",
          "type": "string"
        },
        {
          "internalType": "string",
          "name": "socialContribution",
          "type": "string"
        },
        {
          "internalType": "uint8",
          "name": "age",
          "type": "uint8"
        },
        {
          "internalType": "uint8",
          "name": "grade",
          "type": "uint8"
        },
        {
          "internalType": "uint256",
          "name": "id",
          "type": "uint256"
        },
        {
          "internalType": "uint16",
          "name": "voteCount",
          "type": "uint16"
        },
        {
          "internalType": "bool",
          "name": "onScholarship",
          "type": "bool"
        },
        {
          "internalType": "uint8",
          "name": "monthsOfScholarship",
          "type": "uint8"
        }
      ],
      "stateMutability": "view",
      "type": "function",
      "constant": true
    },
    {
      "inputs": [
        {
          "internalType": "address",
          "name": "_newOwner",
          "type": "address"
        }
      ],
      "name": "setOwner",
      "outputs": [],
      "stateMutability": "nonpayable",
      "type": "function"
    },
    {
      "inputs": [
        {
          "internalType": "uint256",
          "name": "_distributionAmount",
          "type": "uint256"
        }
      ],
      "name": "setDonationInformation",
      "outputs": [],
      "stateMutability": "nonpayable",
      "type": "function"
    },
    {
      "inputs": [
        {
          "internalType": "string",
          "name": "name",
          "type": "string"
        },
        {
          "internalType": "string",
          "name": "lastName",
          "type": "string"
        }
      ],
      "name": "addDonor",
      "outputs": [],
      "stateMutability": "nonpayable",
      "type": "function"
    },
    {
      "inputs": [
        {
          "internalType": "address",
          "name": "walletAddress",
          "type": "address"
        },
        {
          "internalType": "string",
          "name": "description",
          "type": "string"
        },
        {
          "internalType": "string",
          "name": "purpose",
          "type": "string"
        },
        {
          "internalType": "string",
          "name": "socialContribution",
          "type": "string"
        },
        {
          "internalType": "uint8",
          "name": "age",
          "type": "uint8"
        },
        {
          "internalType": "uint8",
          "name": "grade",
          "type": "uint8"
        }
      ],
      "name": "addCandidate",
      "outputs": [],
      "stateMutability": "nonpayable",
      "type": "function"
    },
    {
      "inputs": [
        {
          "internalType": "uint16",
          "name": "_total_vote_to_end",
          "type": "uint16"
        }
      ],
      "name": "createElection",
      "outputs": [],
      "stateMutability": "nonpayable",
      "type": "function"
    },
    {
      "inputs": [],
      "name": "donate",
      "outputs": [],
      "stateMutability": "payable",
      "type": "function",
      "payable": true
    },
    {
      "inputs": [],
      "name": "distributeDonations",
      "outputs": [],
      "stateMutability": "nonpayable",
      "type": "function"
    },
    {
      "inputs": [
        {
          "internalType": "uint16",
          "name": "choice",
          "type": "uint16"
        }
      ],
      "name": "vote",
      "outputs": [],
      "stateMutability": "nonpayable",
      "type": "function"
    },
    {
      "inputs": [],
      "name": "terminateElection",
      "outputs": [],
      "stateMutability": "nonpayable",
      "type": "function"
    },
    {
      "inputs": [],
      "name": "getOwner",
      "outputs": [
        {
          "internalType": "address",
          "name": "",
          "type": "address"
        }
      ],
      "stateMutability": "view",
      "type": "function",
      "constant": true
    },
    {
      "inputs": [
        {
          "internalType": "address",
          "name": "walletAddress",
          "type": "address"
        }
      ],
      "name": "getUser",
      "outputs": [
        {
          "components": [
            {
              "internalType": "address",
              "name": "walletAddress",
              "type": "address"
            },
            {
              "internalType": "string",
              "name": "name",
              "type": "string"
            },
            {
              "internalType": "string",
              "name": "lastName",
              "type": "string"
            },
            {
              "internalType": "bool",
              "name": "canVote",
              "type": "bool"
            }
          ],
          "internalType": "struct CharityContract.Donor",
          "name": "",
          "type": "tuple"
        }
      ],
      "stateMutability": "view",
      "type": "function",
      "constant": true
    },
    {
      "inputs": [
        {
          "internalType": "uint256",
          "name": "candidateId",
          "type": "uint256"
        }
      ],
      "name": "getCandidate",
      "outputs": [
        {
          "components": [
            {
              "internalType": "address",
              "name": "walletAddress",
              "type": "address"
            },
            {
              "internalType": "string",
              "name": "description",
              "type": "string"
            },
            {
              "internalType": "string",
              "name": "purpose",
              "type": "string"
            },
            {
              "internalType": "string",
              "name": "socialContribution",
              "type": "string"
            },
            {
              "internalType": "uint8",
              "name": "age",
              "type": "uint8"
            },
            {
              "internalType": "uint8",
              "name": "grade",
              "type": "uint8"
            },
            {
              "internalType": "uint256",
              "name": "id",
              "type": "uint256"
            },
            {
              "internalType": "uint16",
              "name": "voteCount",
              "type": "uint16"
            },
            {
              "internalType": "bool",
              "name": "onScholarship",
              "type": "bool"
            },
            {
              "internalType": "uint8",
              "name": "monthsOfScholarship",
              "type": "uint8"
            }
          ],
          "internalType": "struct CharityContract.Candidate",
          "name": "",
          "type": "tuple"
        }
      ],
      "stateMutability": "view",
      "type": "function",
      "constant": true
    },
    {
      "inputs": [],
      "name": "getDonationInfo",
      "outputs": [
        {
          "internalType": "uint256",
          "name": "",
          "type": "uint256"
        }
      ],
      "stateMutability": "view",
      "type": "function",
      "constant": true
    },
    {
      "inputs": [],
      "name": "getTotalDonations",
      "outputs": [
        {
          "internalType": "uint256",
          "name": "",
          "type": "uint256"
        }
      ],
      "stateMutability": "view",
      "type": "function",
      "constant": true
    },
    {
      "inputs": [
        {
          "internalType": "uint256",
          "name": "index",
          "type": "uint256"
        }
      ],
      "name": "getElection",
      "outputs": [
        {
          "components": [
            {
              "internalType": "uint16",
              "name": "currentVoteCount",
              "type": "uint16"
            },
            {
              "internalType": "uint16",
              "name": "totalVoteToEnd",
              "type": "uint16"
            },
            {
              "internalType": "bool",
              "name": "isActive",
              "type": "bool"
            }
          ],
          "internalType": "struct CharityContract.Election",
          "name": "",
          "type": "tuple"
        }
      ],
      "stateMutability": "view",
      "type": "function",
      "constant": true
    }
  ],
  "bytecode": "0x60a0604052600160ff1660809060ff1660f81b81525034801561002157600080fd5b50600160008190555033600360006101000a81548173ffffffffffffffffffffffffffffffffffffffff021916908373ffffffffffffffffffffffffffffffffffffffff16021790555060006004819055506008339080600181540180825580915050600190039060005260206000200160009091909190916101000a81548173ffffffffffffffffffffffffffffffffffffffff021916908373ffffffffffffffffffffffffffffffffffffffff160217905550600160058190555060805160f81c6143566100fc600039600061284501526143566000f3fe6080604052600436106100f35760003560e01c80637ec3ecd21161008a578063b4f3b1ca11610059578063b4f3b1ca14610314578063d1bc76a11461032b578063ddb6e11614610371578063ed88c68e1461039a576100f3565b80637ec3ecd21461025a578063893d20e8146102835780639d710777146102ae578063a957f307146102eb576100f3565b80635e0e8e2e116100c65780635e0e8e2e1461019e5780636f77926b146101c7578063777c658f146102045780637cfa5f7e1461022f576100f3565b80630cfd66be146100f857806313af403514610121578063171c56d61461014a57806335b8e82014610161575b600080fd5b34801561010457600080fd5b5061011f600480360381019061011a9190613356565b6103a4565b005b34801561012d57600080fd5b50610148600480360381019061014391906131b9565b61053f565b005b34801561015657600080fd5b5061015f610613565b005b34801561016d57600080fd5b5061018860048036038101906101839190613383565b610e0c565b6040516101959190613bb1565b60405180910390f35b3480156101aa57600080fd5b506101c560048036038101906101c09190613383565b6110e2565b005b3480156101d357600080fd5b506101ee60048036038101906101e991906131b9565b61117c565b6040516101fb9190613bd3565b60405180910390f35b34801561021057600080fd5b506102196113b2565b6040516102269190613c10565b60405180910390f35b34801561023b57600080fd5b506102446113bc565b6040516102519190613c10565b60405180910390f35b34801561026657600080fd5b50610281600480360381019061027c91906131e6565b6113c6565b005b34801561028f57600080fd5b5061029861171a565b6040516102a591906138ee565b60405180910390f35b3480156102ba57600080fd5b506102d560048036038101906102d09190613383565b611744565b6040516102e29190613bf5565b60405180910390f35b3480156102f757600080fd5b50610312600480360381019061030d91906132d5565b6117cc565b005b34801561032057600080fd5b50610329611a92565b005b34801561033757600080fd5b50610352600480360381019061034d9190613383565b611f6c565b6040516103689a99989796959493929190613909565b60405180910390f35b34801561037d57600080fd5b5061039860048036038101906103939190613356565b6121ca565b005b6103a26127e9565b005b600360009054906101000a900473ffffffffffffffffffffffffffffffffffffffff1673ffffffffffffffffffffffffffffffffffffffff163373ffffffffffffffffffffffffffffffffffffffff1614610434576040517f08c379a000000000000000000000000000000000000000000000000000000000815260040161042b906139f1565b60405180910390fd5b600c6005546104439190613cce565b60045411610486576040517f08c379a000000000000000000000000000000000000000000000000000000000815260040161047d90613b51565b60405180910390fd5b610490600261296d565b6040518060600160405280600061ffff1681526020018261ffff16815260200160011515815250600b60006104c56002612983565b815260200190815260200160002060008201518160000160006101000a81548161ffff021916908361ffff16021790555060208201518160000160026101000a81548161ffff021916908361ffff16021790555060408201518160000160046101000a81548160ff02191690831515021790555090505050565b600360009054906101000a900473ffffffffffffffffffffffffffffffffffffffff1673ffffffffffffffffffffffffffffffffffffffff163373ffffffffffffffffffffffffffffffffffffffff16146105cf576040517f08c379a00000000000000000000000000000000000000000000000000000000081526004016105c6906139f1565b60405180910390fd5b80600360006101000a81548173ffffffffffffffffffffffffffffffffffffffff021916908373ffffffffffffffffffffffffffffffffffffffff16021790555050565b600360009054906101000a900473ffffffffffffffffffffffffffffffffffffffff1673ffffffffffffffffffffffffffffffffffffffff163373ffffffffffffffffffffffffffffffffffffffff16146106a3576040517f08c379a000000000000000000000000000000000000000000000000000000000815260040161069a906139f1565b60405180910390fd5b6006805490506005546106b69190613cce565b60045410156106fa576040517f08c379a00000000000000000000000000000000000000000000000000000000081526004016106f190613a31565b60405180910390fd5b600760006107089190612d33565b60005b6006805490508161ffff161015610bc357600c60068261ffff168154811061073657610735613f20565b5b906000526020600020906007020160060160039054906101000a900460ff1660ff161115610799576040517f08c379a000000000000000000000000000000000000000000000000000000000815260040161079090613b31565b60405180910390fd5b600060068261ffff16815481106107b3576107b2613f20565b5b906000526020600020906007020160000160009054906101000a900473ffffffffffffffffffffffffffffffffffffffff1673ffffffffffffffffffffffffffffffffffffffff1660055460405161080a906138d9565b60006040518083038185875af1925050503d8060008114610847576040519150601f19603f3d011682016040523d82523d6000602084013e61084c565b606091505b5050905080610890576040517f08c379a000000000000000000000000000000000000000000000000000000000815260040161088790613a71565b60405180910390fd5b60068261ffff16815481106108a8576108a7613f20565b5b9060005260206000209060070201600601600381819054906101000a900460ff16809291906108d690613e98565b91906101000a81548160ff021916908360ff16021790555050600554600460008282546109039190613d28565b9250508190555060068261ffff168154811061092257610921613f20565b5b906000526020600020906007020160000160009054906101000a900473ffffffffffffffffffffffffffffffffffffffff1673ffffffffffffffffffffffffffffffffffffffff167fe871ccae3071728b63dd5c073ac969ee0412aadf68dd99b5c10a5b203449275b60055460405161099b9190613c10565b60405180910390a2600760068361ffff16815481106109bd576109bc613f20565b5b906000526020600020906007020190806001815401808255809150506001900390600052602060002090600702016000909190919091506000820160009054906101000a900473ffffffffffffffffffffffffffffffffffffffff168160000160006101000a81548173ffffffffffffffffffffffffffffffffffffffff021916908373ffffffffffffffffffffffffffffffffffffffff1602179055506001820181600101908054610a6f90613df2565b610a7a929190612d57565b506002820181600201908054610a8f90613df2565b610a9a929190612d57565b506003820181600301908054610aaf90613df2565b610aba929190612d57565b506004820160009054906101000a900460ff168160040160006101000a81548160ff021916908360ff1602179055506004820160019054906101000a900460ff168160040160016101000a81548160ff021916908360ff160217905550600582015481600501556006820160009054906101000a900461ffff168160060160006101000a81548161ffff021916908361ffff1602179055506006820160029054906101000a900460ff168160060160026101000a81548160ff0219169083151502179055506006820160039054906101000a900460ff168160060160036101000a81548160ff021916908360ff1602179055505050508080610bbb90613e24565b91505061070b565b5060066000610bd29190612d33565b6000600190505b6007805490508161ffff161015610e0957600660078261ffff1681548110610c0457610c03613f20565b5b906000526020600020906007020190806001815401808255809150506001900390600052602060002090600702016000909190919091506000820160009054906101000a900473ffffffffffffffffffffffffffffffffffffffff168160000160006101000a81548173ffffffffffffffffffffffffffffffffffffffff021916908373ffffffffffffffffffffffffffffffffffffffff1602179055506001820181600101908054610cb690613df2565b610cc1929190612d57565b506002820181600201908054610cd690613df2565b610ce1929190612d57565b506003820181600301908054610cf690613df2565b610d01929190612d57565b506004820160009054906101000a900460ff168160040160006101000a81548160ff021916908360ff1602179055506004820160019054906101000a900460ff168160040160016101000a81548160ff021916908360ff160217905550600582015481600501556006820160009054906101000a900461ffff168160060160006101000a81548161ffff021916908361ffff1602179055506006820160029054906101000a900460ff168160060160026101000a81548160ff0219169083151502179055506006820160039054906101000a900460ff168160060160036101000a81548160ff021916908360ff16021790555050508080610e0190613e24565b915050610bd9565b50565b610e14612de4565b600a6000838152602001908152602001600020604051806101400160405290816000820160009054906101000a900473ffffffffffffffffffffffffffffffffffffffff1673ffffffffffffffffffffffffffffffffffffffff1673ffffffffffffffffffffffffffffffffffffffff168152602001600182018054610e9990613df2565b80601f0160208091040260200160405190810160405280929190818152602001828054610ec590613df2565b8015610f125780601f10610ee757610100808354040283529160200191610f12565b820191906000526020600020905b815481529060010190602001808311610ef557829003601f168201915b50505050508152602001600282018054610f2b90613df2565b80601f0160208091040260200160405190810160405280929190818152602001828054610f5790613df2565b8015610fa45780601f10610f7957610100808354040283529160200191610fa4565b820191906000526020600020905b815481529060010190602001808311610f8757829003601f168201915b50505050508152602001600382018054610fbd90613df2565b80601f0160208091040260200160405190810160405280929190818152602001828054610fe990613df2565b80156110365780601f1061100b57610100808354040283529160200191611036565b820191906000526020600020905b81548152906001019060200180831161101957829003601f168201915b505050505081526020016004820160009054906101000a900460ff1660ff1660ff1681526020016004820160019054906101000a900460ff1660ff1660ff168152602001600582015481526020016006820160009054906101000a900461ffff1661ffff1661ffff1681526020016006820160029054906101000a900460ff161515151581526020016006820160039054906101000a900460ff1660ff1660ff16815250509050919050565b600360009054906101000a900473ffffffffffffffffffffffffffffffffffffffff1673ffffffffffffffffffffffffffffffffffffffff163373ffffffffffffffffffffffffffffffffffffffff1614611172576040517f08c379a0000000000000000000000000000000000000000000000000000000008152600401611169906139f1565b60405180910390fd5b8060058190555050565b611184612e5c565b61118d82612991565b6111cc576040517f08c379a00000000000000000000000000000000000000000000000000000000081526004016111c390613b11565b60405180910390fd5b600960008373ffffffffffffffffffffffffffffffffffffffff1673ffffffffffffffffffffffffffffffffffffffff1681526020019081526020016000206040518060800160405290816000820160009054906101000a900473ffffffffffffffffffffffffffffffffffffffff1673ffffffffffffffffffffffffffffffffffffffff1673ffffffffffffffffffffffffffffffffffffffff16815260200160018201805461127c90613df2565b80601f01602080910402602001604051908101604052809291908181526020018280546112a890613df2565b80156112f55780601f106112ca576101008083540402835291602001916112f5565b820191906000526020600020905b8154815290600101906020018083116112d857829003601f168201915b5050505050815260200160028201805461130e90613df2565b80601f016020809104026020016040519081016040528092919081815260200182805461133a90613df2565b80156113875780601f1061135c57610100808354040283529160200191611387565b820191906000526020600020905b81548152906001019060200180831161136a57829003601f168201915b505050505081526020016003820160009054906101000a900460ff1615151515815250509050919050565b6000600454905090565b6000600554905090565b600360009054906101000a900473ffffffffffffffffffffffffffffffffffffffff1673ffffffffffffffffffffffffffffffffffffffff163373ffffffffffffffffffffffffffffffffffffffff1614611456576040517f08c379a000000000000000000000000000000000000000000000000000000000815260040161144d906139f1565b60405180910390fd5b611460600161296d565b600061146c6001612983565b90506040518061014001604052808b73ffffffffffffffffffffffffffffffffffffffff1681526020018a8a8080601f016020809104026020016040519081016040528093929190818152602001838380828437600081840152601f19601f82011690508083019250505050505050815260200188888080601f016020809104026020016040519081016040528093929190818152602001838380828437600081840152601f19601f82011690508083019250505050505050815260200186868080601f016020809104026020016040519081016040528093929190818152602001838380828437600081840152601f19601f8201169050808301925050505050505081526020018460ff1681526020018360ff168152602001828152602001600061ffff168152602001600015158152602001600060ff16815250600a600083815260200190815260200160002060008201518160000160006101000a81548173ffffffffffffffffffffffffffffffffffffffff021916908373ffffffffffffffffffffffffffffffffffffffff160217905550602082015181600101908051906020019061161e929190612e9c565b50604082015181600201908051906020019061163b929190612e9c565b506060820151816003019080519060200190611658929190612e9c565b5060808201518160040160006101000a81548160ff021916908360ff16021790555060a08201518160040160016101000a81548160ff021916908360ff16021790555060c0820151816005015560e08201518160060160006101000a81548161ffff021916908361ffff1602179055506101008201518160060160026101000a81548160ff0219169083151502179055506101208201518160060160036101000a81548160ff021916908360ff16021790555090505050505050505050505050565b6000600360009054906101000a900473ffffffffffffffffffffffffffffffffffffffff16905090565b61174c612f22565b600b60008381526020019081526020016000206040518060600160405290816000820160009054906101000a900461ffff1661ffff1661ffff1681526020016000820160029054906101000a900461ffff1661ffff1661ffff1681526020016000820160049054906101000a900460ff1615151515815250509050919050565b6117d533612991565b15611815576040517f08c379a000000000000000000000000000000000000000000000000000000000815260040161180c90613af1565b60405180910390fd5b60405180608001604052803373ffffffffffffffffffffffffffffffffffffffff16815260200185858080601f016020809104026020016040519081016040528093929190818152602001838380828437600081840152601f19601f82011690508083019250505050505050815260200183838080601f016020809104026020016040519081016040528093929190818152602001838380828437600081840152601f19601f82011690508083019250505050505050815260200160001515815250600960003373ffffffffffffffffffffffffffffffffffffffff1673ffffffffffffffffffffffffffffffffffffffff16815260200190815260200160002060008201518160000160006101000a81548173ffffffffffffffffffffffffffffffffffffffff021916908373ffffffffffffffffffffffffffffffffffffffff1602179055506020820151816001019080519060200190611979929190612e9c565b506040820151816002019080519060200190611996929190612e9c565b5060608201518160030160006101000a81548160ff0219169083151502179055509050503373ffffffffffffffffffffffffffffffffffffffff167f70a8e14549a6a20e9a83906e8780911c7429ec054c017e46b3ee0a9957a02a17600960003373ffffffffffffffffffffffffffffffffffffffff1673ffffffffffffffffffffffffffffffffffffffff168152602001908152602001600020600101600960003373ffffffffffffffffffffffffffffffffffffffff1673ffffffffffffffffffffffffffffffffffffffff168152602001908152602001600020600201604051611a849291906139ba565b60405180910390a250505050565b600360009054906101000a900473ffffffffffffffffffffffffffffffffffffffff1673ffffffffffffffffffffffffffffffffffffffff163373ffffffffffffffffffffffffffffffffffffffff1614611b22576040517f08c379a0000000000000000000000000000000000000000000000000000000008152600401611b19906139f1565b60405180910390fd5b60011515600b6000611b346001612983565b815260200190815260200160002060000160049054906101000a900460ff16151514611b95576040517f08c379a0000000000000000000000000000000000000000000000000000000008152600401611b8c90613a11565b60405180910390fd5b6000611b9f612a2c565b90506006600a600083815260200190815260200160002090806001815401808255809150506001900390600052602060002090600702016000909190919091506000820160009054906101000a900473ffffffffffffffffffffffffffffffffffffffff168160000160006101000a81548173ffffffffffffffffffffffffffffffffffffffff021916908373ffffffffffffffffffffffffffffffffffffffff1602179055506001820181600101908054611c5a90613df2565b611c65929190612d57565b506002820181600201908054611c7a90613df2565b611c85929190612d57565b506003820181600301908054611c9a90613df2565b611ca5929190612d57565b506004820160009054906101000a900460ff168160040160006101000a81548160ff021916908360ff1602179055506004820160019054906101000a900460ff168160040160016101000a81548160ff021916908360ff160217905550600582015481600501556006820160009054906101000a900461ffff168160060160006101000a81548161ffff021916908361ffff1602179055506006820160029054906101000a900460ff168160060160026101000a81548160ff0219169083151502179055506006820160039054906101000a900460ff168160060160036101000a81548160ff021916908360ff1602179055505050600a6000828152602001908152602001600020600080820160006101000a81549073ffffffffffffffffffffffffffffffffffffffff0219169055600182016000611de59190612f4d565b600282016000611df59190612f4d565b600382016000611e059190612f4d565b6004820160006101000a81549060ff02191690556004820160016101000a81549060ff021916905560058201600090556006820160006101000a81549061ffff02191690556006820160026101000a81549060ff02191690556006820160036101000a81549060ff0219169055505060008190505b611e846001612983565b8111611eb85780600a6000838152602001908152602001600020600501819055508080611eb090613e4f565b915050611e7a565b50611ec36001612ac7565b6000600b6000611ed36002612983565b815260200190815260200160002060000160046101000a81548160ff0219169083151502179055506040518060200160405280600360009054906101000a900473ffffffffffffffffffffffffffffffffffffffff1673ffffffffffffffffffffffffffffffffffffffff1673ffffffffffffffffffffffffffffffffffffffff168152506008906001611f68929190612f8d565b5050565b60068181548110611f7c57600080fd5b90600052602060002090600702016000915090508060000160009054906101000a900473ffffffffffffffffffffffffffffffffffffffff1690806001018054611fc590613df2565b80601f0160208091040260200160405190810160405280929190818152602001828054611ff190613df2565b801561203e5780601f106120135761010080835404028352916020019161203e565b820191906000526020600020905b81548152906001019060200180831161202157829003601f168201915b50505050509080600201805461205390613df2565b80601f016020809104026020016040519081016040528092919081815260200182805461207f90613df2565b80156120cc5780601f106120a1576101008083540402835291602001916120cc565b820191906000526020600020905b8154815290600101906020018083116120af57829003601f168201915b5050505050908060030180546120e190613df2565b80601f016020809104026020016040519081016040528092919081815260200182805461210d90613df2565b801561215a5780601f1061212f5761010080835404028352916020019161215a565b820191906000526020600020905b81548152906001019060200180831161213d57829003601f168201915b5050505050908060040160009054906101000a900460ff16908060040160019054906101000a900460ff16908060050154908060060160009054906101000a900461ffff16908060060160029054906101000a900460ff16908060060160039054906101000a900460ff1690508a565b60011515600b60006121dc6001612983565b815260200190815260200160002060000160049054906101000a900460ff1615151461223d576040517f08c379a000000000000000000000000000000000000000000000000000000000815260040161223490613a11565b60405180910390fd5b3361224781612b23565b15612287576040517f08c379a000000000000000000000000000000000000000000000000000000000815260040161227e90613a91565b60405180910390fd5b6000600b60006122976002612983565b8152602001908152602001600020905080600001600081819054906101000a900461ffff16809291906122c990613e24565b91906101000a81548161ffff021916908361ffff16021790555050600a60008461ffff168152602001908152602001600020600601600081819054906101000a900461ffff168092919061231c90613e24565b91906101000a81548161ffff021916908361ffff160217905550506008339080600181540180825580915050600190039060005260206000200160009091909190916101000a81548173ffffffffffffffffffffffffffffffffffffffff021916908373ffffffffffffffffffffffffffffffffffffffff1602179055506000600960003373ffffffffffffffffffffffffffffffffffffffff1673ffffffffffffffffffffffffffffffffffffffff16815260200190815260200160002060030160006101000a81548160ff0219169083151502179055508060000160009054906101000a900461ffff1661ffff168160000160029054906101000a900461ffff1661ffff1614156127e4576000612433612a2c565b90506006600a600083815260200190815260200160002090806001815401808255809150506001900390600052602060002090600702016000909190919091506000820160009054906101000a900473ffffffffffffffffffffffffffffffffffffffff168160000160006101000a81548173ffffffffffffffffffffffffffffffffffffffff021916908373ffffffffffffffffffffffffffffffffffffffff16021790555060018201816001019080546124ee90613df2565b6124f9929190612d57565b50600282018160020190805461250e90613df2565b612519929190612d57565b50600382018160030190805461252e90613df2565b612539929190612d57565b506004820160009054906101000a900460ff168160040160006101000a81548160ff021916908360ff1602179055506004820160019054906101000a900460ff168160040160016101000a81548160ff021916908360ff160217905550600582015481600501556006820160009054906101000a900461ffff168160060160006101000a81548161ffff021916908361ffff1602179055506006820160029054906101000a900460ff168160060160026101000a81548160ff0219169083151502179055506006820160039054906101000a900460ff168160060160036101000a81548160ff021916908360ff1602179055505050600a6000828152602001908152602001600020600080820160006101000a81549073ffffffffffffffffffffffffffffffffffffffff02191690556001820160006126799190612f4d565b6002820160006126899190612f4d565b6003820160006126999190612f4d565b6004820160006101000a81549060ff02191690556004820160016101000a81549060ff021916905560058201600090556006820160006101000a81549061ffff02191690556006820160026101000a81549060ff02191690556006820160036101000a81549060ff0219169055505060008190505b6127186001612983565b811161274c5780600a600083815260200190815260200160002060050181905550808061274490613e4f565b91505061270e565b506127576001612ac7565b60008260000160046101000a81548160ff0219169083151502179055506040518060200160405280600360009054906101000a900473ffffffffffffffffffffffffffffffffffffffff1673ffffffffffffffffffffffffffffffffffffffff1673ffffffffffffffffffffffffffffffffffffffff1681525060089060016127e1929190612f8d565b50505b505050565b343373ffffffffffffffffffffffffffffffffffffffff16311015612843576040517f08c379a000000000000000000000000000000000000000000000000000000000815260040161283a90613ad1565b60405180910390fd5b7f000000000000000000000000000000000000000000000000000000000000000060ff163410156128a9576040517f08c379a00000000000000000000000000000000000000000000000000000000081526004016128a090613ab1565b60405180910390fd5b34600460008282546128bb9190613c78565b925050819055506001600960003373ffffffffffffffffffffffffffffffffffffffff1673ffffffffffffffffffffffffffffffffffffffff16815260200190815260200160002060030160006101000a81548160ff0219169083151502179055503373ffffffffffffffffffffffffffffffffffffffff167f264f630d9efa0d07053a31163641d9fcc0adafc9d9e76f1c37c2ce3a558d2c52346040516129639190613c10565b60405180910390a2565b6001816000016000828254019250508190555050565b600081600001549050919050565b60008073ffffffffffffffffffffffffffffffffffffffff16600960008473ffffffffffffffffffffffffffffffffffffffff1673ffffffffffffffffffffffffffffffffffffffff16815260200190815260200160002060000160009054906101000a900473ffffffffffffffffffffffffffffffffffffffff1673ffffffffffffffffffffffffffffffffffffffff1614159050919050565b60008060009050600080600090505b612a456001612983565b811015612abe5782600a600083815260200190815260200160002060060160009054906101000a900461ffff1661ffff161115612aab57600a600082815260200190815260200160002060060160009054906101000a900461ffff1661ffff1692508091505b8080612ab690613e4f565b915050612a3b565b50809250505090565b60008160000154905060008111612b13576040517f08c379a0000000000000000000000000000000000000000000000000000000008152600401612b0a90613a51565b60405180910390fd5b6001810382600001819055505050565b6000612b2e82612c84565b612b6d576040517f08c379a0000000000000000000000000000000000000000000000000000000008152600401612b6490613b91565b60405180910390fd5b60006008805480602002602001604051908101604052809291908181526020018280548015612bf157602002820191906000526020600020905b8160009054906101000a900473ffffffffffffffffffffffffffffffffffffffff1673ffffffffffffffffffffffffffffffffffffffff1681526020019060010190808311612ba7575b5050505050905060005b81518161ffff161015612c78578373ffffffffffffffffffffffffffffffffffffffff16828261ffff1681518110612c3657612c35613f20565b5b602002602001015173ffffffffffffffffffffffffffffffffffffffff161415612c6557600192505050612c7f565b8080612c7090613e24565b915050612bfb565b5060009150505b919050565b6000612c8f82612991565b612cce576040517f08c379a0000000000000000000000000000000000000000000000000000000008152600401612cc590613b71565b60405180910390fd5b600960008373ffffffffffffffffffffffffffffffffffffffff1673ffffffffffffffffffffffffffffffffffffffff16815260200190815260200160002060030160009054906101000a900460ff16612d29576000612d2c565b60015b9050919050565b5080546000825560070290600052602060002090810190612d549190613017565b50565b828054612d6390613df2565b90600052602060002090601f016020900481019282612d855760008555612dd3565b82601f10612d965780548555612dd3565b82800160010185558215612dd357600052602060002091601f016020900482015b82811115612dd2578254825591600101919060010190612db7565b5b509050612de091906130f2565b5090565b604051806101400160405280600073ffffffffffffffffffffffffffffffffffffffff168152602001606081526020016060815260200160608152602001600060ff168152602001600060ff16815260200160008152602001600061ffff168152602001600015158152602001600060ff1681525090565b6040518060800160405280600073ffffffffffffffffffffffffffffffffffffffff16815260200160608152602001606081526020016000151581525090565b828054612ea890613df2565b90600052602060002090601f016020900481019282612eca5760008555612f11565b82601f10612ee357805160ff1916838001178555612f11565b82800160010185558215612f11579182015b82811115612f10578251825591602001919060010190612ef5565b5b509050612f1e91906130f2565b5090565b6040518060600160405280600061ffff168152602001600061ffff1681526020016000151581525090565b508054612f5990613df2565b6000825580601f10612f6b5750612f8a565b601f016020900490600052602060002090810190612f8991906130f2565b5b50565b828054828255906000526020600020908101928215613006579160200282015b828111156130055782518260006101000a81548173ffffffffffffffffffffffffffffffffffffffff021916908373ffffffffffffffffffffffffffffffffffffffff16021790555091602001919060010190612fad565b5b50905061301391906130f2565b5090565b5b808211156130ee57600080820160006101000a81549073ffffffffffffffffffffffffffffffffffffffff02191690556001820160006130589190612f4d565b6002820160006130689190612f4d565b6003820160006130789190612f4d565b6004820160006101000a81549060ff02191690556004820160016101000a81549060ff021916905560058201600090556006820160006101000a81549061ffff02191690556006820160026101000a81549060ff02191690556006820160036101000a81549060ff021916905550600701613018565b5090565b5b8082111561310b5760008160009055506001016130f3565b5090565b60008135905061311e816142c4565b92915050565b60008083601f84011261313a57613139613f54565b5b8235905067ffffffffffffffff81111561315757613156613f4f565b5b60208301915083600182028301111561317357613172613f59565b5b9250929050565b600081359050613189816142db565b92915050565b60008135905061319e816142f2565b92915050565b6000813590506131b381614309565b92915050565b6000602082840312156131cf576131ce613f63565b5b60006131dd8482850161310f565b91505092915050565b600080600080600080600080600060c08a8c03121561320857613207613f63565b5b60006132168c828d0161310f565b99505060208a013567ffffffffffffffff81111561323757613236613f5e565b5b6132438c828d01613124565b985098505060408a013567ffffffffffffffff81111561326657613265613f5e565b5b6132728c828d01613124565b965096505060608a013567ffffffffffffffff81111561329557613294613f5e565b5b6132a18c828d01613124565b945094505060806132b48c828d016131a4565b92505060a06132c58c828d016131a4565b9150509295985092959850929598565b600080600080604085870312156132ef576132ee613f63565b5b600085013567ffffffffffffffff81111561330d5761330c613f5e565b5b61331987828801613124565b9450945050602085013567ffffffffffffffff81111561333c5761333b613f5e565b5b61334887828801613124565b925092505092959194509250565b60006020828403121561336c5761336b613f63565b5b600061337a8482850161317a565b91505092915050565b60006020828403121561339957613398613f63565b5b60006133a78482850161318f565b91505092915050565b6133b981613d5c565b82525050565b6133c881613d5c565b82525050565b6133d781613d6e565b82525050565b6133e681613d6e565b82525050565b60006133f782613c40565b6134018185613c56565b9350613411818560208601613dbf565b61341a81613f68565b840191505092915050565b600061343082613c40565b61343a8185613c67565b935061344a818560208601613dbf565b61345381613f68565b840191505092915050565b6000815461346b81613df2565b6134758186613c67565b9450600182166000811461349057600181146134a2576134d5565b60ff19831686526020860193506134d5565b6134ab85613c2b565b60005b838110156134cd578154818901526001820191506020810190506134ae565b808801955050505b50505092915050565b60006134eb602583613c67565b91506134f682613f79565b604082019050919050565b600061350e602183613c67565b915061351982613fc8565b604082019050919050565b6000613531602a83613c67565b915061353c82614017565b604082019050919050565b6000613554601b83613c67565b915061355f82614066565b602082019050919050565b6000613577600f83613c67565b91506135828261408f565b602082019050919050565b600061359a601683613c67565b91506135a5826140b8565b602082019050919050565b60006135bd603d83613c67565b91506135c8826140e1565b604082019050919050565b60006135e0600e83613c67565b91506135eb82614130565b602082019050919050565b6000613603601483613c67565b915061360e82614159565b602082019050919050565b6000613626601483613c67565b915061363182614182565b602082019050919050565b6000613649603383613c67565b9150613654826141ab565b604082019050919050565b600061366c600083613c4b565b9150613677826141fa565b600082019050919050565b600061368f603e83613c67565b915061369a826141fd565b604082019050919050565b60006136b2602d83613c67565b91506136bd8261424c565b604082019050919050565b60006136d5601583613c67565b91506136e08261429b565b602082019050919050565b60006101408301600083015161370460008601826133b0565b506020830151848203602086015261371c82826133ec565b9150506040830151848203604086015261373682826133ec565b9150506060830151848203606086015261375082826133ec565b915050608083015161376560808601826138bb565b5060a083015161377860a08601826138bb565b5060c083015161378b60c086018261389d565b5060e083015161379e60e086018261387f565b506101008301516137b36101008601826133ce565b506101208301516137c86101208601826138bb565b508091505092915050565b60006080830160008301516137eb60008601826133b0565b506020830151848203602086015261380382826133ec565b9150506040830151848203604086015261381d82826133ec565b915050606083015161383260608601826133ce565b508091505092915050565b606082016000820151613853600085018261387f565b506020820151613866602085018261387f565b50604082015161387960408501826133ce565b50505050565b61388881613d7a565b82525050565b61389781613d7a565b82525050565b6138a681613da8565b82525050565b6138b581613da8565b82525050565b6138c481613db2565b82525050565b6138d381613db2565b82525050565b60006138e48261365f565b9150819050919050565b600060208201905061390360008301846133bf565b92915050565b60006101408201905061391f600083018d6133bf565b8181036020830152613931818c613425565b90508181036040830152613945818b613425565b90508181036060830152613959818a613425565b905061396860808301896138ca565b61397560a08301886138ca565b61398260c08301876138ac565b61398f60e083018661388e565b61399d6101008301856133dd565b6139ab6101208301846138ca565b9b9a5050505050505050505050565b600060408201905081810360008301526139d4818561345e565b905081810360208301526139e8818461345e565b90509392505050565b60006020820190508181036000830152613a0a816134de565b9050919050565b60006020820190508181036000830152613a2a81613501565b9050919050565b60006020820190508181036000830152613a4a81613524565b9050919050565b60006020820190508181036000830152613a6a81613547565b9050919050565b60006020820190508181036000830152613a8a8161356a565b9050919050565b60006020820190508181036000830152613aaa8161358d565b9050919050565b60006020820190508181036000830152613aca816135b0565b9050919050565b60006020820190508181036000830152613aea816135d3565b9050919050565b60006020820190508181036000830152613b0a816135f6565b9050919050565b60006020820190508181036000830152613b2a81613619565b9050919050565b60006020820190508181036000830152613b4a8161363c565b9050919050565b60006020820190508181036000830152613b6a81613682565b9050919050565b60006020820190508181036000830152613b8a816136a5565b9050919050565b60006020820190508181036000830152613baa816136c8565b9050919050565b60006020820190508181036000830152613bcb81846136eb565b905092915050565b60006020820190508181036000830152613bed81846137d3565b905092915050565b6000606082019050613c0a600083018461383d565b92915050565b6000602082019050613c2560008301846138ac565b92915050565b60008190508160005260206000209050919050565b600081519050919050565b600081905092915050565b600082825260208201905092915050565b600082825260208201905092915050565b6000613c8382613da8565b9150613c8e83613da8565b9250827fffffffffffffffffffffffffffffffffffffffffffffffffffffffffffffffff03821115613cc357613cc2613ec2565b5b828201905092915050565b6000613cd982613da8565b9150613ce483613da8565b9250817fffffffffffffffffffffffffffffffffffffffffffffffffffffffffffffffff0483118215151615613d1d57613d1c613ec2565b5b828202905092915050565b6000613d3382613da8565b9150613d3e83613da8565b925082821015613d5157613d50613ec2565b5b828203905092915050565b6000613d6782613d88565b9050919050565b60008115159050919050565b600061ffff82169050919050565b600073ffffffffffffffffffffffffffffffffffffffff82169050919050565b6000819050919050565b600060ff82169050919050565b60005b83811015613ddd578082015181840152602081019050613dc2565b83811115613dec576000848401525b50505050565b60006002820490506001821680613e0a57607f821691505b60208210811415613e1e57613e1d613ef1565b5b50919050565b6000613e2f82613d7a565b915061ffff821415613e4457613e43613ec2565b5b600182019050919050565b6000613e5a82613da8565b91507fffffffffffffffffffffffffffffffffffffffffffffffffffffffffffffffff821415613e8d57613e8c613ec2565b5b600182019050919050565b6000613ea382613db2565b915060ff821415613eb757613eb6613ec2565b5b600182019050919050565b7f4e487b7100000000000000000000000000000000000000000000000000000000600052601160045260246000fd5b7f4e487b7100000000000000000000000000000000000000000000000000000000600052602260045260246000fd5b7f4e487b7100000000000000000000000000000000000000000000000000000000600052603260045260246000fd5b600080fd5b600080fd5b600080fd5b600080fd5b600080fd5b6000601f19601f8301169050919050565b7f4f6e6c7920746865206f776e65722063616e2063616c6c20746869732066756e60008201527f6374696f6e000000000000000000000000000000000000000000000000000000602082015250565b7f50726f706f73616c2069732063757272656e746c79206e6f742061637469766560008201527f2e00000000000000000000000000000000000000000000000000000000000000602082015250565b7f546865726520697320696e73756666696369656e742066756e647320746f206460008201527f6973747269627574652e00000000000000000000000000000000000000000000602082015250565b7f436f756e7465723a2064656372656d656e74206f766572666c6f770000000000600082015250565b7f5472616e73666572206661696c65640000000000000000000000000000000000600082015250565b7f4164647265737320616c726561647920766f7465642e00000000000000000000600082015250565b7f446f6e6174696f6e20616d6f756e74206d75737420626520677265617465722060008201527f7468616e206d696e696d756d20646f6e6174696f6e20616d6f756e742e000000602082015250565b7f4e6f7420656e6f75676820424e42000000000000000000000000000000000000600082015250565b7f5573657220616c7265616479206578697374732e000000000000000000000000600082015250565b7f5573657220646f6573206e6f7420657869737421000000000000000000000000600082015250565b7f546865207363686f6c61727368697020706572696f642068617320656e64656460008201527f20666f722074686520726563697069656e742e00000000000000000000000000602082015250565b50565b7f4e6f7420656e6f75676820646f6e6174696f6e7320746f2063686f6f7365206160008201527f20726563697069656e7420666f7220746865207363686f6c6172736869700000602082015250565b7f5573657220646f6573206e6f7420657869737420746f20636865636b2069662060008201527f7368652063616e20766f74652e00000000000000000000000000000000000000602082015250565b7f4f6e6c7920646f6e6f72732063616e20766f74652e0000000000000000000000600082015250565b6142cd81613d5c565b81146142d857600080fd5b50565b6142e481613d7a565b81146142ef57600080fd5b50565b6142fb81613da8565b811461430657600080fd5b50565b61431281613db2565b811461431d57600080fd5b5056fea26469706673582212208c65ed67c4174457ffc7951509886d311de2c9ea19fc1f50eb705b670a8f5dd264736f6c63430008070033",
  "immutableReferences": {
    "22": [
      {
        "length": 32,
        "start": 10309
      }
    ]
  },
  "source": "// SPDX-License-Identifier: MIT\r\npragma solidity ^0.8.7;\r\nimport \"../../node_modules/@openzeppelin/contracts/utils/Counters.sol\";\r\nimport \"../../node_modules/@openzeppelin/contracts/security/ReentrancyGuard.sol\";\r\n\r\ncontract CharityContract is ReentrancyGuard {\r\n  \r\n  //DATA\r\n  \r\n  //Counter\r\n  using Counters for Counters.Counter;\r\n  Counters.Counter private _counter;\r\n  Counters.Counter private _electionCounter;\r\n\r\n  //Owner\r\n  address private owner;\r\n\r\n  \r\n  // Holds total donations amount.\r\n  uint256 private totalDonations; \r\n  // Specifies the minimum donation amount.      \r\n  uint8 immutable minDonation = 1;   \r\n  // Amount to be distributed   \r\n  uint256 private distributionAmount;   \r\n\r\n  // List of addresses to receive donations.\r\n  Candidate[] public recipients;        \r\n  // Helper array to keep the recipients array up to date.\r\n  Candidate[] private validRecipients; \r\n\r\n  // Array for holding the ones who voted.\r\n  address[] private voted_addresses;\r\n\r\n\r\n\r\n\r\n  struct Donor\r\n  {\r\n    address walletAddress;\r\n    string name;\r\n    string lastName;\r\n    bool canVote;\r\n  }\r\n\r\n  struct Candidate\r\n  {\r\n    address walletAddress;\r\n    string description;\r\n    string purpose;\r\n    string socialContribution;\r\n    uint8 age;\r\n    uint8 grade;\r\n    uint256 id;\r\n    uint16 voteCount;\r\n    bool onScholarship;\r\n\r\n    uint8 monthsOfScholarship;\r\n  }\r\n\r\n  struct Election {\r\n    uint16 currentVoteCount;\r\n    uint16 totalVoteToEnd;\r\n    bool isActive;\r\n  }\r\n    \r\n\r\n  //events\r\n\r\n  // The event that will be triggered when a donor is added.\r\n  event DonorAdded(address indexed walletAddress, string name, string lastName);\r\n  // The event that will be triggered when a donation is made\r\n  event DonationReceived(address indexed donor, uint256 amount);\r\n  // The event that will be triggered when the distribution is made\r\n  event DonationDistributed(address indexed recipient, uint256 amount);\r\n\r\n\r\n  //mappings\r\n\r\n  // Donor(user) mapping\r\n  mapping(address => Donor) private donors;\r\n  // Candidate mapping\r\n  mapping(uint256 => Candidate) private candidates;\r\n  // Mapping for holding the election history.\r\n  mapping(uint256 => Election) electionHistory;\r\n\r\n\r\n\r\n  //constructor\r\n  constructor() {\r\n    owner = msg.sender;\r\n    totalDonations = 0;\r\n    voted_addresses.push(msg.sender);\r\n\r\n    distributionAmount = 1;\r\n  }\r\n  \r\n\r\n\r\n  //MODIFIERS\r\n\r\n  // Checks whether address that calls the function is \"owner\".\r\n  modifier onlyOwner() {\r\n    require(msg.sender == owner, \"Only the owner can call this function\");\r\n    _;\r\n  }\r\n\r\n  // Checks whether election is active.\r\n  modifier active()\r\n  {\r\n    require(electionHistory[_counter.current()].isActive == true, \"Proposal is currently not active.\");\r\n    _;\r\n  }\r\n\r\n  // Checks whether the donor has voted before.\r\n  modifier newVoter(address _address)\r\n  {\r\n    require(!isVoted(_address), \"Address already voted.\");\r\n    _;\r\n  }\r\n\r\n\r\n  //FUNCTIONS\r\n\r\n  // Sets a new owner.\r\n  function setOwner(address _newOwner) external onlyOwner {\r\n    owner = _newOwner;\r\n  }\r\n\r\n  // Allows owner to change the distribution amount as needed.\r\n  function setDonationInformation(uint256 _distributionAmount) external onlyOwner {\r\n    distributionAmount = _distributionAmount;\r\n  }\r\n\r\n  // Creates a donor.\r\n  function addDonor(string calldata name, string calldata lastName) external {\r\n    require(!isUser(msg.sender), \"User already exists.\");\r\n    donors[msg.sender] = Donor(msg.sender, name, lastName, false);\r\n\r\n    emit DonorAdded(msg.sender, donors[msg.sender].name, donors[msg.sender].lastName);\r\n  }\r\n\r\n  // Allows owner to add a candidate.\r\n  function addCandidate(address walletAddress, string calldata description, string calldata purpose, string calldata socialContribution, uint8 age, uint8 grade) external onlyOwner {\r\n    _counter.increment();\r\n    uint _id = _counter.current();\r\n    candidates[_id] = Candidate(walletAddress, description, purpose, socialContribution, age, grade, _id, 0, false, 0);\r\n  }\r\n\r\n  // Allows owner to create a new election if the total donation amount is greater than a scholar's 12-month scholarship amount.\r\n  // Elections are held to determine the new scholarship holder.\r\n  function createElection(uint16 _total_vote_to_end) external onlyOwner {\r\n    require(totalDonations > distributionAmount * 12, \"Not enough donations to choose a recipient for the scholarship\");\r\n\r\n    _electionCounter.increment();\r\n    electionHistory[_electionCounter.current()] = Election(0, _total_vote_to_end, true);\r\n  }\r\n\r\n  // Allows donation if conditions are met.\r\n  // User can vote after this step thanks to canVote boolean update.\r\n  function donate() external payable {  // !!!\r\n    require(msg.sender.balance >= msg.value, \"Not enough BNB\");\r\n    require(msg.value >= minDonation, \"Donation amount must be greater than minimum donation amount.\");\r\n    \r\n    totalDonations += msg.value;\r\n\r\n    donors[msg.sender].canVote = true;\r\n    \r\n    emit DonationReceived(msg.sender, msg.value);\r\n  }\r\n\r\n  // Allows owner to distribute donations to the scholars.\r\n  // Distribution is only possible if the total amount of donations are greater than or equal to\r\n  // total scholarship amount to be distributed to all scholarship holders that month.\r\n  // \"recipients\" list is updated every function call since students can receive scholarships for only 12 months.\r\n  function distributeDonations() external onlyOwner() {\r\n    require(totalDonations >= distributionAmount * recipients.length, \"There is insufficient funds to distribute.\");\r\n\r\n    delete validRecipients;\r\n    \r\n    for (uint16 i = 0; i < recipients.length; i++) {\r\n      require(recipients[i].monthsOfScholarship <= 12, \"The scholarship period has ended for the recipient.\");\r\n\r\n      (bool success, ) = recipients[i].walletAddress.call{value: distributionAmount}(\"\");\r\n      require(success, \"Transfer failed\");\r\n\r\n      recipients[i].monthsOfScholarship ++;\r\n      totalDonations -= distributionAmount;\r\n\r\n      emit DonationDistributed(recipients[i].walletAddress, distributionAmount);\r\n\r\n      validRecipients.push(recipients[i]);\r\n    }\r\n\r\n    delete recipients;\r\n    for (uint16 j = 1; j < validRecipients.length; j++) {\r\n      recipients.push(validRecipients[j]);\r\n    }\r\n  }\r\n\r\n  // Allows users who have donated before to vote.\r\n  // All candidates have their own numbers, and they are voted using these numbers by donors.\r\n  // After reaching the number of totalVoteToEnd, winner is calculated, and election ends.\r\n  function vote(uint16 choice) external active newVoter(msg.sender) {\r\n\r\n    Election storage election = electionHistory[_electionCounter.current()];\r\n    election.currentVoteCount ++;\r\n\r\n    candidates[choice].voteCount ++;\r\n\r\n    voted_addresses.push(msg.sender);\r\n    donors[msg.sender].canVote = false;\r\n\r\n    if(election.totalVoteToEnd == election.currentVoteCount)\r\n    {\r\n      uint winner = calculateWinner();\r\n      recipients.push(candidates[winner]);\r\n      delete candidates[winner];\r\n      for (uint i = winner; i <= _counter.current(); i++) {\r\n        candidates[i].id = i;\r\n      }\r\n      _counter.decrement();\r\n\r\n      election.isActive = false;\r\n      voted_addresses = [owner];\r\n    }\r\n  }\r\n\r\n  // This function ensures an election ends in finite time, in the case that not reaching enough number of votes to end.\r\n  function terminateElection() external onlyOwner active {\r\n    uint winner = calculateWinner();\r\n    recipients.push(candidates[winner]);\r\n    delete candidates[winner];\r\n    for (uint i = winner; i <= _counter.current(); i++) {\r\n      candidates[i].id = i;\r\n    }\r\n    _counter.decrement();\r\n\r\n    electionHistory[_electionCounter.current()].isActive = false;\r\n    voted_addresses = [owner];\r\n  }\r\n\r\n  // Returns a boolean based on first-time voting status, after ensure user has donated before.\r\n  function isVoted(address _address) private view returns (bool) {\r\n    require(isDonor(_address), \"Only donors can vote.\");\r\n\r\n    address[] memory _voted_addresses = voted_addresses;\r\n    for (uint16 i = 0; i < _voted_addresses.length; i++) \r\n    {\r\n      if(_voted_addresses[i] == _address)       \r\n      {\r\n          return true;\r\n      }\r\n    }\r\n    return false;\r\n  }\r\n\r\n  // Returns id number of candidate with the most votes.\r\n  function calculateWinner() private view returns(uint256){\r\n    uint maxVoteCount = 0;\r\n    uint winningCandidateId;\r\n\r\n    for (uint i = 0; i < _counter.current(); i++) {\r\n      if (candidates[i].voteCount > maxVoteCount) {\r\n        maxVoteCount = candidates[i].voteCount;\r\n        winningCandidateId = i;\r\n      }\r\n    }\r\n\r\n    return winningCandidateId;\r\n  }\r\n\r\n\r\n\r\n \r\n\r\n  // Returns a bool based on the address' user status.\r\n  function isUser(address walletAddress) private view returns(bool) {\r\n    return donors[walletAddress].walletAddress != address(0);\r\n  }\r\n\r\n  // Returns a bool based on the user's vote status depends on whether she has voted before.\r\n  function isDonor(address walletAddress) private view returns(bool) {\r\n    require(isUser(walletAddress), \"User does not exist to check if she can vote.\");\r\n    return donors[walletAddress].canVote ? true : false;\r\n  }\r\n\r\n  // Returns owner's address\r\n  function getOwner() external view returns (address) {\r\n    return owner;\r\n  }\r\n\r\n  // Returns Donor struct of the given address.\r\n  function getUser(address walletAddress) external view returns(Donor memory) {\r\n    require(isUser(walletAddress), \"User does not exist!\");\r\n    return donors[walletAddress];\r\n  }\r\n\r\n  // Returns Candidate struct of the given number.\r\n  function getCandidate(uint256 candidateId) external view returns(Candidate memory) {\r\n    return candidates[candidateId];\r\n  }\r\n\r\n  // Returns the current distribution amount.\r\n  function getDonationInfo() external view returns(uint256) {\r\n    return distributionAmount;\r\n  }\r\n\r\n  // Returns the amount of total donations.\r\n  function getTotalDonations() external view returns (uint256) {\r\n    return totalDonations;\r\n  }\r\n\r\n  // Returns Election struct of the given number.\r\n  function getElection(uint256 index) external view returns (Election memory) {\r\n    return electionHistory[index];\r\n  }\r\n}\r\n",
  "sourcePath": "C:\\Users\\Beyzanur\\Desktop\\Competition\\Charity_dApp\\contracts\\bsc\\CharityContract.sol",
  "compiler": {
    "name": "solc",
    "version": "0.8.7+commit.e28d00a7.Emscripten.clang"
  },
  "schemaVersion": "3.4.15",
  "updatedAt": "2023-10-22T19:34:43.299Z",
  "networkType": "ethereum",
  "devdoc": {
    "kind": "dev",
    "methods": {},
    "version": 1
  },
  "userdoc": {
    "kind": "user",
    "methods": {},
    "version": 1
  },
  "db": {
    "callBytecode": {
      "id": "0x27ea7da251801878bf947a3d42312171407f9eb7bae6c4a2001bf59a14fbdc6a"
    },
    "createBytecode": {
      "id": "0xe7625e06dce9fab7f278d4f7cf5f7fd6de72f5d3731d12a62d9bf2d8afd435c4"
    },
    "contract": {
      "id": "0x461d39d2041e9755550bdf3c67d690139e95f2c8b1628fb46dca0c8b147dc8a7"
    }
  }
}